:10000000FDC000000DC100000BC1000009C10000CF
:1000100007C1000005C1000003C1000001C10000CC
:10002000FFC00000FDC00000FBC00000F9C00000E0
:10003000F7C00000F5C00000F3C00000F1C00000F0
:10004000EFC00000EDC00000EBC00000E9C0000000
:10005000E7C00000E5C00000E3C00000E1C0000010
:10006000DFC00000DDC00000DBC00000D9C0000020
:10007000D7C00000D5C00000D3C00000D1C0000030
:10008000CFC00000CDC00000CBC00000C9C0000040
:10009000C7C00000C5C00000C3C00000C1C0000050
:1000A000BFC00000BDC00000BBC00000B9C0000060
:1000B000B7C00000B5C00000B3C00000B1C0000070
:1000C000AFC00000ADC00000ABC00000A9C0000080
:1000D000A7C00000A5C00000A3C00000A1C0000090
:1000E0009FC000009DC000009BC0000099C00000A0
:1000F00097C0000095C0000093C0000091C00000B0
:100100008FC000008DC000008BC0000089C00000BF
:1001100087C0000085C0000083C0000081C00000CF
:100120007FC000007DC000007BC0000079C00000DF
:1001300077C0000075C0000073C0000071C00000EF
:100140006FC000006DC000006BC0000069C00000FF
:1001500067C0000065C0000063C0000061C000000F
:100160005FC000005DC000005BC0000059C000001F
:1001700057C0000055C0000053C0000051C000002F
:100180004FC000004DC000004BC0000049C000003F
:1001900047C0000045C0000043C0000041C000004F
:1001A0003FC000003DC000003BC0000039C000005F
:1001B00037C0000035C0000033C0000031C000006F
:1001C0002FC000002DC000002BC0000029C000007F
:1001D00027C0000025C0000023C0000021C000008F
:1001E0001FC000001DC000001BC0000019C000009F
:1001F00017C0000015C0000013C0000011241FBE6E
:10020000CFEFCDBFDFE5DEBF00E00CBF20E2A0E016
:10021000B0E201C01D92A730B207E1F7E9D071C288
:10022000EFCECF92DF92EF92FF920F931F93CF9377
:10023000DF9392E0C92E90E2D92ED6014C9121E0B5
:1002400030E0E90102C0CC0FDD1F4A95E2F7E0E49F
:10025000F6E0C68360E076E0DB0115961C9240EE86
:1002600057E092E0EA019E83A1E0B0E20C917901AF
:1002700002C0EE0CFF1C0A95E2F7E6820C91E90140
:1002800002C0CC0FDD1F0A95E2F7C583EB018D8319
:10029000EA019D838C91790102C0EE0CFF1C8A95C6
:1002A000E2F7E6828C91A90102C0440F551F8A959E
:1002B000E2F74583D6018C91082E01C0220F0A94E3
:1002C000EAF72583DF91CF911F910F91FF90EF9077
:1002D000DF90CF900895E0E0F6E08583A1E0B0E202
:1002E0002C9181E090E0AC0102C0440F551F2A958B
:1002F000E2F7E0E4F6E046832C91022E01C0880F7D
:100300000A94EAF785830895CF92DF92EF92FF92E5
:100310000F931F93CF93DF931F921F92CDB7DEB73A
:1003200000E010E2F8012081EE24E394F12CA70113
:1003300002C0440F551F2A95E2F79A0140E4C42EEB
:1003400046E0D42EF60126836A8379836ADF7981B9
:10035000872FC1DF6A81862FBEDFF8018081082EDA
:1003600001C0EE0C0A94EAF7F601E5820F900F90B7
:10037000DF91CF911F910F91FF90EF90DF90CF9081
:100380000895CF93DF9360E070E080E5BDDF6FEE0E
:1003900070E081E5B9DF60E070E082E5B5DF6FE332
:1003A00071E083E5B1DF60E070E080E2ADDF2091D5
:1003B000002081E090E001C0880F2A95EAF7809341
:1003C000460682E22EDFC0E4D1E088EF84DF219789
:1003D0002097D9F72091002081E090E0022E01C003
:1003E000880F0A94EAF780934506DF91CF9108952C
:1003F000809150008660809350008091510082FF70
:10040000FCCF8091510081FFFCCF41E04093600020
:1004100088ED84BF40934000809150008E7F809390
:100420005000109200204093012082E0809302202F
:1004300093E0909303204093E1078093E10720919C
:10044000002081E090E0BC0102C0660F771F2A9572
:10045000E2F76093410620910120BC0102C0660FC3
:10046000771F2A95E2F76093410620910220BC0194
:1004700002C0660F771F2A95E2F76093410620912C
:100480000320BC0102C0660F771F2A95E2F7609334
:1004900041062FEF209301062091032001C0880F11
:1004A0002A95EAF7809345064093E5078FE39CE998
:1004B0000197F1F700C000002091032081E090E057
:1004C00001C0880F2A95EAF78093460681E0809361
:1004D000E6079FEF26E761E0915020406040E1F79A
:1004E00000C000007FEF86E791E0715080409040AF
:1004F000E1F700C0000060EF78E785EE05DF60E01F
:1005000071E081E001DF60E072E082E0FDDE60E347
:1005100070E183E0F9DE60E070E084E0F5DE67E042
:1005200072E088E0F1DE60E070E089E0EDDE60E03E
:1005300070E08AE0E9DE60E070E08CE0E5DE60E03B
:1005400070E08DE0E1DE60E070E08FE0DDDE60E035
:1005500070E080E1D9DE67E070E081E1D5DE60E047
:1005600070E082E1D1DE60E070E083E1CDDE61E049
:1005700070E087E0C9DE2FEF67E873E1215060404B
:100580007040E1F700C0000060E976E180E1BCDE88
:1005900067E272E081E1B8DE8FEF91EE24E08150F6
:1005A00090402040E1F700C000006DE070E082E183
:1005B000ABDE6FEF71EE84E0615070408040E1F798
:1005C00000C0000060E072E183E19EDE6AE070E05E
:1005D00089E29ADE6DE070E08BE296DE9FEF21EE1D
:1005E00064E0915020406040E1F700C0000060E00E
:1005F00070E080E289DE60E070E081E285DE60E04C
:1006000070E080E381DE64E074E081E37DDE63E03E
:1006100070E082E379DE65E074E085E375DE68E032
:1006200078E086E371DE67E074E087E36DDE63E027
:1006300073E088E369DE67E077E089E365DE64E024
:1006400075E08CE361DE68E078E08DE35DDE60E01C
:1006500070E080E559DE6FEE70E081E555DE60E028
:1006600070E082E551DE6FE371E083E54DDE60E02E
:1006700077EA80E649DE61E070E081E645DE60E031
:1006800070E08AE641DE60E070E080E83DDE60E038
:1006900070E081E839DE60E070E082E835DE60E03D
:1006A00070E083E831DE60E070E084E82DDE60E039
:1006B00070E085E829DE60E170E080E925DE60E039
:1006C00070E082E921DE63E371E087E01DDE59DE40
:1006D000C1E057DE7FEF83ED90E3715080409040A2
:1006E000E1F700C00000C093E5072FEF63ED70E372
:1006F000215060407040E1F700C00000C093E60761
:06070000E8CFF894FFCFE2
:00000001FF
